:100000000C941E070C9400000C9400000C9400004B
:100010000C9400000C9400000C9400000C94000060
:100020000C9400000C9400000C9400000C94050744
:100030000C9400000C9400000C9400000C94000040
:100040000C9400000C9400000C9400000C94000030
:040050000C9400000C
:100E3C00BFE5BDBFB8E0BEBF0E948508CDB7DEB729
:100E4C00C657D040CDBFDEBF21962F923F924F9216
:100E5C005F926F927F928F929F92E0E2F0E1DE01BF
:100E6C00129684E790E050DA68DAB1E02B2E65DF59
:100E7C00BCE02B2E62DF8E010E5F1F4F18017CDD54
:100E8C00AE0142595F4FFA010191119121913191BB
:100E9C00FE01EA59FF4F01931193219331938A017B
:100EAC000C5F1F4FF8010191119121913191FE01BD
:100EBC00E659FF4F019311932193319355DD80E057
:100ECC0090E009E110E080179107D4F5BE01665956
:100EDC007F4FAE014A595F4F9E012E5F3F4F8C01F1
:100EEC00000F111F000F111F020F131FF8010191AA
:100EFC001191219131919F938F93FE01E659FF4FF0
:100F0C006190719081909190FE01EA59FF4F219070
:100F1C003190419051907F936F935F934F933F9398
:100F2C002F931F930F9382DCADB7BEB71896ADBF4E
:100F3C00BEBF8F919F918C010F5F1F4FC801C1CF16
:100F4C00F9DEB4EB6B2EB0E07B2EFE01EA59FF4FBD
:100F5C00219031904190519007DBB4EB4B2EB0E0D7
:100F6C005B2EB1E03B2EB1E02B2E19DCB4EB6B2EDB
:100F7C00B0E07B2EFE01E659FF4F2190319041905D
:100F8C005190F2DAB4EB4B2EB0E05B2EBAE03B2E74
:100F9C00B1E02B2E04DC8E0128012090A8003090AB
:100FAC00A9009DDBBDE94B2EB0E05B2EB1E03B2EE2
:100FBC00B3E02B2EF4DB8E012801BDE03B2EB3E019
:100FCC002B2EEDDB8E01280122B6B0E03B2E87DB09
:100FDC00B0E94B2EB0E05B2EB1E03B2EB4E02B2EF3
:100FEC00DEDB8E012801BDE03B2EB4E02B2ED7DBDF
:100FFC0025E01FE002EF0A95F1F71A95E1F72A9523
:10100C00D1F79F908F907F906F905F904F903F9013
:04101C002F90FFCF43
:10034600B0913200B77FB0933200B0913200BB7FDC
:10035600B0933200B0913200BF77B0933200B091C3
:100366003200BF7BB0933200B0913200BF7DB093B4
:100376003200B0913200BF7EB0933200B0913100AE
:10038600B860B0933100B0913100B460B0933100E1
:10039600B0913100B061B0933100B0913100B062DC
:1003A600B0933100B0913100B064B0933100B09198
:1003B6003100B068B0933100BADFB9DFB8DFB09171
:1003C6003200B062B0933200B0913200B061B093A7
:1003D6003200B0913200B860B0933200A2DFB09123
:1003E6003200B77FB0933200A2DFB0913200B8601E
:1003F600B093320096DFB0913200B77FB0933200EF
:1004060096DFB0913200B860B09332008ADFB091C7
:100416003200B77FB09332008ADFB0913200BF7EE0
:10042600B0933200B0913200B860B093320079DFF9
:10043600B0913200B77FB093320079DFB0913200CD
:10044600B860B09332006DDFB0913200B77FB093E1
:100456003200B0913200BF7DB0933200B0913200CD
:10046600B068B0933200B0913200B860B0933200F9
:1004760058DFB0913200B77FB093320058DFB091A9
:100486003200BF77B0933200B0913200B061B093C2
:100496003200B0913200B860B093320042DFB091C2
:1004A6003200B77FB0933200B0913200BF7EB09376
:1004B6003200B0913200B860B093320032DFB091B2
:1004C6003200B77FB093320032DFB0913200B860AD
:1004D600B093320026DFB0913200B77FB09332007E
:1004E600B0913200B061B0933200B0913200B86082
:1004F600B093320016DFB0913200B77FB09332006E
:1005060016DFB0913200BF7EB0933200B091320058
:10051600B860B093320005DFB0913200B77FB09378
:100526003200B0913200B068B0933200B091320020
:10053600B064B0933200B0913200B062B093320032
:10054600B0913200B061B0933200B0913200B86021
:10055600B0933200E6DEB0913200B77FB09332003E
:0E056600E6DEB091B300B160B093B30008952B
:100334001AE303E20A95F1F71A95E1F700000000C9
:0203440008951A
:0C03280002E00A95F1F7000000000895C3
:100D460027FAB0913200B7F9B093320026FAB09183
:100D56003200B6F9B093320025FAB0913200B5F9F7
:100D6600B093320024FAB0913200B4F9B093320055
:100D7600B091B30000903200E894B0FF689402F896
:100D860000923200B0913200B860B0933200C9DAF6
:100D9600B0913200B77FB093320023FAB09132009F
:100DA600B7F9B093320022FAB0913200B6F9B09397
:100DB600320021FAB0913200B5F9B093320020FA30
:100DC600B0913200B4F9B0933200B091B300009004
:100DD6003200E894B0FF689402F800923200B091B5
:100DE6003200B860B09332009CDAB0913200B77F1F
:100DF600B0933200B091B300B0FF02C098DA01C0E0
:040E06008BDA0895E6
:0A031E0005E80A95F1F700000895C4
:10098400CF93DF93CDB7DEB76097CDBFDEBF21969F
:10099400EEEDF0E1DE0180E190E0BADC8E01F801D9
:1009A4003C960191119121913191F101019311939F
:1009B40021933193B0E0B093B2000091B2000931B9
:1009C40008F0B6C1B0E0B093AE00B093AF00B093FE
:1009D400B000B093B100B0E0B093AA00B093AB0004
:1009E400B093AC00B093AD00CE01FC010191119124
:1009F400219131910093AA001093AB002093AC0095
:100A04003093AD0027703070BDE0A801B901440FE8
:100A1400551F661F771FBA95D1F7FC0134960191D3
:100A240011912191319100701070287FB3E13695B6
:100A3400279517950795BA95D1F7042B152B262BD7
:100A4400372BFC0101931193219331932E01C201A1
:100A54000496F201349601911191219131912770FC
:100A64003070BDE0A801B901440F551F661F771F00
:100A7400BA95D1F7F20138960191119121913191F2
:100A840000701070287FB3E1369527951795079568
:100A9400BA95D1F7042B152B262B372BFC01019388
:100AA4001193219331932E01C2010896F2013896D5
:100AB400019111912191319127703070BDE0A8010D
:100AC400B901440F551F661F771FBA95D1F7F2017C
:100AD4003C96019111912191319100701070287F01
:100AE400B3E13695279517950795BA95D1F7042B59
:100AF400152B262B372BFC01019311932193319352
:100B04008E01C8010C96F8013C9601911191219136
:100B1400319127703070BDE0A801B901440F551F11
:100B2400661F771FBA95D1F70091AA001091AB0008
:100B34002091AC003091AD0000701070287FB3E1BB
:100B44003695279517950795BA95D1F7042B152B4C
:100B5400262B372BFC010193119321933193CE0162
:100B6400FC013C960191119121913191A801B901A7
:100B74004F7050706070707000E810E0F801E40F7E
:100B8400F51F00810093AA00B0E0B093AB00B093CE
:100B9400AC00B093AD00FC013C9601911191219100
:100BA4003191B4E03595279517950795BA95D1F706
:100BB400A801B9014F7050706070707000E810E0C7
:100BC400F801E40FF51F00810093AE00B0E0B0938C
:100BD400AF00B093B000B093B1000091AE0010919B
:100BE400AF002091B0003091B1000F7010702070F0
:100BF4003070B4E0A801B901440F551F661F771F78
:100C0400BA95D1F70091AA001091AB002091AC00E5
:100C14003091AD002A013B01402A512A622A732AED
:100C24004092AA005092AB006092AC007092AD006A
:100C3400AC01445F5F4FFC013C96019111912191FD
:100C4400319100700429152926293729FA010193C5
:100C54001193219331934E01F4013896019111912E
:100C640021913191007010702070387FBBE1A80190
:100C7400B9017695679557954795BA95D1F74093FD
:100C8400AA005093AB006093AC007093AD00009148
:100C9400B2000F712A013B014026B0E05B266B26AF
:100CA4007B264092AA005092AB006092AC007092F6
:100CB400AD00C4010896F401389601911191219177
:100CC4003191A801B9017770820193010F711070FD
:100CD40020703070BBE1000F111F221F331FBA9523
:100CE400D1F7042B152B262B372BFC0101931193E1
:100CF400219331930091B20010E00F5F1F4F000F5A
:100D0400111F000F111FA801420D531D8E01F80180
:100D14003C960191119121913191FA010193119322
:100D2400219331930091B2000F5F0093B20045CE3E
:0C0D34002F96CDBFDEBFDF91CF91089558
:0A03140005900D920197E1F708959E
:10097400B1E0B9BFBFB7B068BFBFB1E0B3BF0895BE
:0009840073
:10083800CF93DF93CDB7DEB72C97CDBFDEBF219620
:100848002F923F924F925F92A888B988CA88DB8816
:100858000C891D890C8B1D8B0E891F890E8B1F8B94
:10086800EEEFF0E1DE018CE090E050DD8E019F922A
:100878008F927F926F92380193DC8E010C5F1F4F2D
:100888005F924F923F922F923801288039804A8098
:100898005B800ADC2F903F904F905F908E0138016B
:1008A800E9DB8E01085F1F4F5F924F923F922F92B4
:1008B8003801288039804A805B80F6DB2F903F9092
:1008C8004F905F906F907F908F909F904C815D814B
:1008D8006E817F81088519852A853B850427152720
:1008E800262737270A251B252C253D2506251725CC
:1008F80028253925088319832A833B838E010C5FB9
:100908001F4F9F928F927F926F923801BCDC8E01AD
:10091800085F1F4F3801288039804A805B80B3DC2C
:100928006F907F908F909F906C807D808E809F804D
:10093800288439844A845B84088519852A853B85FF
:10094800EC89FD890193119321933193EE89FF89F5
:1009580061927192819291925F904F903F902F9007
:0C0968002B96CDBFDEBFDF91CF9108952C
:1001A800810192013F71B3E0A801B901440F551FC5
:1001B800661F771FBA95D1F7810192010070107000
:1001C8002070307EBDE13695279517950795BA952D
:1001D800D1F7042B152B262B372BF3010193119301
:0601E800219331930895FC
:1000B000CF93DF93CDB7DEB7A097CDBFDEBF21963C
:1000C000F301B0E0B193B193B193B193B0E0B093C9
:1000D000B2000091B200003208F060C00091B2009E
:1000E00010E015950795159507959E01000F111FB6
:1000F000000F111FC801820F931FB091B200810140
:100100009201BB2331F03595279517950795BA9540
:10011000D1F7A801B9014F7050706070707000E89D
:1001200010E0F801E40FF51F0081FC010193B0E03D
:10013000B193B193B1930091B20010E0159507957A
:10014000159507959E01000F111F000F111FF80153
:10015000E20FF31F0191119121913191B091B20001
:10016000A801B901BB2331F0440F551F661F771F4B
:10017000BA95D1F7F3010191119121913191042B9D
:10018000152B262B372BF3010193119321933193D8
:100190000091B2000C5F0093B2009BCF6F96CDBF71
:0801A000DEBFDF91CF9108954D
:10007C00810192010070412F522F632F70E081019A
:10008C009201107020703070302F0027112722271A
:10009C00042B152B262B372BF30101931193219352
:0400AC0031930895EF
:10028E0088249924AA24BB24B0E0B093B200009134
:10029E00B200003290F5B091B20081019201BB2301
:1002AE0031F03595279517950795BA95D1F7A80191
:1002BE00B901417050706070707010E620E00091CE
:1002CE00B200E02FF0E0E10FF21F0081B02F8A01A3
:1002DE009B01BB2331F0000F111F221F331FBA9554
:1002EE00D1F7082919292A293B29480159010091DA
:1002FE00B2000F5F0093B200CACFF30181929192C8
:06030E00A192B1920895D6
:060D4000B0E0B3BF08950E
:10057400CF93DF93CDB7DEB72297CDBFDEBF2196F1
:10058400042D152D20E017FD2FEF322F088319833A
:100594008E01F80131960081202F26952695269507
:1005A40026950EEE10E1E22FF0E0E00FF11F04912A
:1005B400F3010083362D472D3F5F4F4F8E01F80125
:1005C40031960081202F2F700EEE10E1E22FF0E023
:1005D400E00FF11F0491E32FF42F0083362D472DF4
:1005E4003E5F4F4FFE010081202F269526952695CC
:1005F40026950EEE10E1E22FF0E0E00FF11F0491DA
:10060400E32FF42F0083362D472D3D5F4F4FFE011E
:100614000081202F2F700EEE10E1E22FF0E0E00FAA
:10062400F11F0491E32FF42F008328823982362DA1
:10063400472D3C5F4F4F8E01F80131960081202FEA
:1006440026952695269526950EEE10E1E22FF0E0EC
:10065400E00FF11F0491E32FF42F0083362D472D73
:100664003B5F4F4F8E01F80131960081202F2F7090
:100674000EEE10E1E22FF0E0E00FF11F0491E32F02
:10068400F42F0083362D472D3A5F4F4FFE01008132
:10069400202F26952695269526950EEE10E1E22F1D
:1006A400F0E0E00FF11F0491E32FF42F0083362DC7
:1006B400472D395F4F4FFE010081202F2F700EEE22
:1006C40010E1E22FF0E0E00FF11F0491E32FF42F8B
:1006D4000083F3013896B0E0B0832196CDBFDEBF2E
:0606E400DF91CF910895A3
:1007AA002F920FC0B0E82B2E19C0B0EC2B2E16C01A
:1007BA00B4E92B2E13C0B4ED2B2E10C0B0E82B2EAB
:1007CA000DC0B1E02B1671F3B2E02B1671F3B3E052
:1007DA002B1671F3B4E02B1671F3F0CF032D0150F1
:1007EA00020D202E202EAAD2B091B300BE7FB09364
:1007FA00B30010E0E12FF0E0E40DF51D00810023C5
:10080A0079F0E12FF0E0E40DF51D00811F932F929E
:10081A00202E2CDD2F901F91012F0F5F102FEACF72
:0E082A00B091B300B160B093B3002F90089569
:10027600B091B300BE7FB093B30062D5B091B30026
:08028600B160B093B3000895CC
:1006EA00CF93DF93CDB7DEB72497CDBFDEBF219678
:1006FA002F923F92B0E0B883B9832A823B8200E00E
:10070A0010E02016310654F4B1E0B883B0E0B983A2
:10071A0000E010E0021913090A831B832A803B8038
:10072A0061DD66E070E0AB0100E010E00417150738
:10073A0090F49A01240D351D8A0101501040F801E8
:10074A00E40DF51D0081F90100838A010150104072
:10075A00B801AB01E9CFF201B0E2B0830881198197
:10076A00B02FB12BA9F020E030E0F901E40DF51D1E
:10077A000081003229F489010F5F1F4F9801F5CFDC
:10078A00890101501040F801E40DF51DBDE2B08366
:10079A003F902F902396CDBFDEBFDF91CF91089572
:0007AA004F
:1001EE00CF93DF93CDB7DEB72297CDBFDEBF21967B
:1001FE0010E0153050F4E12FF0E0E40DF51DB0E203
:10020E00B083012F0F5F102FF4CFE12FF0E0E40D3C
:10021E00F51DB0E0B083012F0150302F032F10E0F9
:10022E00040D151D088319834AE050E081010BDF90
:10023E008D01202F205D08811981F80120834AE06D
:10024E0050E0810100DF8C011801103009F40030FC
:10025E0009F404C0032F0150302FE0CF2196CDBFFB
:08026E00DEBFDF91CF9108957E
:10005400C801BA01AA1BBB1B51E107C0AA1FBB1FE1
:10006400A617B70710F0A61BB70B881F991F5A9540
:08007400A9F78095909508950D
:10110A00A0E6B0E0E4E9F0E18AE490E00E948A0116
:02111A00089536
:100E0A000F931F93EF93FF93BF93BFB7BF930091C5
:100E1A00A8001091A9000F5F1F4F0093A80010931C
:100E2A00A900BF91BFBFBF91FF91EF911F910F9191
:020E3A00189509
:1010EE003031323334353637383941424344454650
:1010940014101C181115191D16121E1A13171B1FD4
:1010A4000B0F03070E0A0602090D01050C080400C4
:1010B4000209070E010C0A000403080D0F06050BB4
:0D10C40054434E54302056616C75653A005F
:0B10D1004F766572666C6F77733A0013
:0210DC00000012
:1010200000000000000000000000000000000000C0
:1010300000000000000000000000000000000000B0
:1010400000000000000000000000000000000000A0
:101050000000000000000000000000000000000090
:101060000000000000000000000000000000000080
:101070000000000000000000000000000000000070
:04108000000000006C
:041084000000000068
:041088000000000064
:08108C0000000000000000005C
:1010DE000000000000000000000000000000000002
:0410FE0000000000EE
:0411020000000000E9
:0411060000000000E5
:00000001FF
