:100000000C94E6060C9400000C9400000C94000084
:100010000C9400000C9400000C9400000C94000060
:100020000C9400000C9400000C9400000C94CD067D
:100030000C9400000C9400000C9400000C94000040
:100040000C9400000C9400000C9400000C94000030
:040050000C9400000C
:100DCC00BFE5BDBFB8E0BEBF0E941708CDB7DEB708
:100DDC00CC58D040CDBFDEBF21962F923F924F9280
:100DEC005F926F927F928F929F92E8E4FFE0DE0118
:100DFC008CE890E080DA98DAB1E02B2EAEDCBCE027
:100E0C002B2EABDC8E0118010ADDAE014C575F4F67
:100E1C00FA010191119121913191FE01E458FF4F9A
:100E2C0001931193219331938A010C5F1F4FF801A9
:100E3C000191119121913191FE01E058FF4F0193E5
:100E4C0011932193319380E090E00FE110E0801733
:100E5C009107C4F5BE0160587F4FAE0144585F4FF7
:100E6C009E018C01000F111F000F111F020F131F89
:100E7C00F80101911191219131919F938F93FE0172
:100E8C00E058FF4F6190719081909190FE01E45871
:100E9C00FF4F21903190419051907F936F935F93CE
:100EAC004F933F932F931F930F9397DEADB7BEB71E
:100EBC001896ADBFBEBF8F919F918C010F5F1F4FD6
:100ECC00C801C3CFBCE96B2EB0E07B2EFE01E45809
:100EDC00FF4F21903190419051903DDBBCE94B2E5E
:100EEC00B0E05B2EB1E03B2EB1E02B2EEFDBBCE98A
:100EFC006B2EB0E07B2EFE01E058FF4F219031901D
:100F0C004190519028DBBCE94B2EB0E05B2EBAE04F
:100F1C003B2EB1E02B2EDADB25E01FE002EF0A9529
:100F2C00F1F71A95E1F72A95D1F79F908F907F9062
:0C0F3C006F905F904F903F902F90FFCF80
:10033400B0913200B77FB0933200B0913200BB7FEE
:10034400B0933200B0913200BF77B0933200B091D5
:100354003200BF7BB0933200B0913200BF7DB093C6
:100364003200B0913200BF7EB0933200B0913100C0
:10037400B860B0933100B0913100B460B0933100F3
:10038400B0913100B061B0933100B0913100B062EE
:10039400B0933100B0913100B064B0933100B091AA
:1003A4003100B068B0933100B5DFB4DFB3DFB09192
:1003B4003200B062B0933200B0913200B061B093B9
:1003C4003200B0913200B860B09332009DDFB0913A
:1003D4003200B77FB09332009DDFB0913200B86035
:1003E400B093320091DFB0913200B77FB093320006
:1003F40091DFB0913200B860B093320085DFB091E4
:100404003200B77FB093320085DFB0913200BF7EF7
:10041400B0933200B0913200B860B093320074DF10
:10042400B0913200B77FB093320074DFB0913200E4
:10043400B860B093320068DFB0913200B77FB093F8
:100444003200B0913200BF7DB0933200B0913200DF
:10045400B068B0933200B0913200B860B09332000B
:1004640053DFB0913200B77FB093320053DFB091C5
:100474003200BF77B0933200B0913200B061B093D4
:100484003200B0913200B860B09332003DDFB091D9
:100494003200B77FB0933200B0913200BF7EB09388
:1004A4003200B0913200B860B09332002DDFB091C9
:1004B4003200B77FB09332002DDFB0913200B860C4
:1004C400B093320021DFB0913200B77FB093320095
:1004D400B0913200B061B0933200B0913200B86094
:1004E400B093320011DFB0913200B77FB093320085
:1004F40011DFB0913200BF7EB0933200B091320070
:10050400B860B093320000DFB0913200B77FB0938F
:100514003200B0913200B068B0933200B091320032
:10052400B064B0933200B0913200B062B093320044
:10053400B0913200B061B0933200B0913200B86033
:10054400B0933200E1DEB0913200B77FB093320055
:0E055400E1DEB0919700B160B093970008957A
:100318001AE303E20A95F1F71A95E1F700000000E5
:02032800089536
:0C030C0002E00A95F1F7000000000895DF
:1007660027FAB0913200B7F9B093320026FAB09169
:100776003200B6F9B093320025FAB0913200B5F9DD
:10078600B093320024FAB0913200B4F9B09332003B
:10079600B091970000903200E894B0FF689402F898
:1007A60000923200B0913200B860B0933200ABDDF7
:1007B600B0913200B77FB093320023FAB091320085
:1007C600B7F9B093320022FAB0913200B6F9B0937D
:1007D600320021FAB0913200B5F9B093320020FA16
:1007E600B0913200B4F9B0933200B0919700009006
:1007F6003200E894B0FF689402F800923200B0919B
:100806003200B860B09332007EDDB0913200B77F1F
:10081600B0933200B0919700B0FF02C07ADD01C0FC
:0408260081DD0895D3
:0A032A0005E80A95F1F700000895B8
:10082A00CF93DF93CDB7DEB76097CDBFDEBF2196FA
:10083A00E6E0F0E1DE0180E190E05EDD8E01F801A4
:10084A003C960191119121913191F10101931193FA
:10085A0021933193B0E0B0939600009196000F3146
:10086A0008F0B6C1B0E0B0939800B0939900B09385
:10087A009A00B0939B00B0E0B0939200B0939300BB
:10088A00B0939400B0939500CE01FC0101911191AF
:10089A002191319100939200109393002093940038
:1008AA003093950027703070BDE0A801B901440F5C
:1008BA00551F661F771FBA95D1F7FC01349601912F
:1008CA0011912191319100701070287FB3E1369512
:1008DA00279517950795BA95D1F7042B152B262B33
:1008EA00372BFC0101931193219331932E01C201FD
:1008FA000496F20134960191119121913191277058
:10090A003070BDE0A801B901440F551F661F771F5B
:10091A00BA95D1F7F201389601911191219131914D
:10092A0000701070287FB3E13695279517950795C3
:10093A00BA95D1F7042B152B262B372BFC010193E3
:10094A001193219331932E01C2010896F201389630
:10095A00019111912191319127703070BDE0A80168
:10096A00B901440F551F661F771FBA95D1F7F201D7
:10097A003C96019111912191319100701070287F5C
:10098A00B3E13695279517950795BA95D1F7042BB4
:10099A00152B262B372BFC010193119321933193AD
:1009AA008E01C8010C96F8013C9601911191219192
:1009BA00319127703070BDE0A801B901440F551F6D
:1009CA00661F771FBA95D1F7009192001091930094
:1009DA00209194003091950000701070287FB3E147
:1009EA003695279517950795BA95D1F7042B152BA8
:1009FA00262B372BFC010193119321933193CE01BE
:100A0A00FC013C960191119121913191A801B90102
:100A1A004F7050706070707000E810E0F801E40FD9
:100A2A00F51F008100939200B0E0B0939300B09359
:100A3A009400B0939500FC013C960191119121918B
:100A4A003191B4E03595279517950795BA95D1F761
:100A5A00A801B9014F7050706070707000E810E022
:100A6A00F801E40FF51F008100939800B0E0B093FD
:100A7A009900B0939A00B0939B000091980010914E
:100A8A00990020919A0030919B000F70107020708D
:100A9A003070B4E0A801B901440F551F661F771FD3
:100AAA00BA95D1F700919200109193002091940089
:100ABA00309195002A013B01402A512A622A732A61
:100ACA004092920050929300609294007092950026
:100ADA00AC01445F5F4FFC013C9601911191219159
:100AEA00319100700429152926293729FA01019321
:100AFA001193219331934E01F4013896019111918A
:100B0A0021913191007010702070387FBBE1A801EB
:100B1A00B9017695679557954795BA95D1F7409358
:100B2A009200509393006093940070939500009103
:100B3A0096000F712A013B014026B0E05B266B2626
:100B4A007B26409292005092930060929400709299
:100B5A009500C4010896F4013896019111912191EA
:100B6A003191A801B9017770820193010F71107058
:100B7A0020703070BBE1000F111F221F331FBA957E
:100B8A00D1F7042B152B262B372BFC01019311933C
:100B9A00219331930091960010E00F5F1F4F000FD1
:100BAA00111F000F111FA801420D531D8E01F801DC
:100BBA003C960191119121913191FA01019311937E
:100BCA0021933193009196000F5F0093960045CED2
:0C0BDA002F96CDBFDEBFDF91CF910895B4
:0A03020005900D920197E1F70895B0
:100BE600CF93DF93CDB7DEB72897CDBFDEBF219673
:100BF600AC84BD84CE84DF8408891989088B198B5F
:100C06000A891B890A8B1B8BE6E2F0E1DE0188E08C
:100C160090E074DB8E019F928F927F926F923801E3
:100C26005CDA8E010C5F1F4F5F924F923F922F92BC
:100C36003801288039804A805B802CDA8E013801A1
:100C4600288039804A805B8002DA2F903F904F904F
:100C56005F906F907F908F909F90488159816A81B5
:100C66007B810C811D812E813F8104271527262734
:100C76003727A801B90146255725682579253A0160
:100C86004B018E019F928F927F926F925F924F924D
:100C96003F922F9238011A012B011FDA8E010C5F49
:100CA6001F4F3801288039804A805B8092DA8E0196
:100CB6003801288039804A805B80FDDA2F903F908A
:100CC6004F905F90488159816A817B810C811D819B
:100CD6002E813F810427152726273727022513252E
:100CE60024253525A801B9014A255B256C257D25D6
:100CF6001A012B018E015F924F923F922F9238017B
:100D06001A012B0195DA2F903F904F905F906F90CC
:100D16007F908F909F908E010C5F1F4F9F928F92B6
:100D26007F926F925F924F923F922F92130124010E
:100D360038017EDA2F903F904F905F906F907F90B2
:100D46008F909F90688079808A809B802C803D80E0
:100D56004E805F80E889F989B0E0B193B193B19391
:100D6600B193EA89FB89B0E0B193B193B193B193A2
:100D7600E889F9892192319241925192EA89FB8957
:100D860061927192819291922796CDBFDEBFDF91DB
:040D9600CF9108955C
:1000E000CF93DF93CDB7DEB7A097CDBFDEBF21960C
:1000F000F301B0E0B193B193B193B193B0E0B09399
:10010000960000919600003208F060C000919600C1
:1001100010E015950795159507959E01000F111F85
:10012000000F111FC801820F931FB091960081012B
:100130009201BB2331F03595279517950795BA9510
:10014000D1F7A801B9014F7050706070707000E86D
:1001500010E0F801E40FF51F0081FC010193B0E00D
:10016000B193B193B1930091960010E01595079566
:10017000159507959E01000F111F000F111FF80123
:10018000E20FF31F0191119121913191B0919600ED
:10019000A801B901BB2331F0440F551F661F771F1B
:1001A000BA95D1F7F3010191119121913191042B6D
:1001B000152B262B372BF3010193119321933193A8
:1001C000009196000C5F009396009BCF6F96CDBF79
:0801D000DEBFDF91CF9108951D
:10009A00810192013170B7E0A801B901440F551FDF
:1000AA00661F771FBA95D1F781019201007010700F
:1000BA0020703E7FB9E13695279517950795BA9531
:1000CA00D1F7042B152B262B372BF3010193119310
:0600DA002193319308950B
:10005400810192013F71B3E0A801B901440F551F1A
:10006400661F771FBA95D1F7810192010070107055
:100074002070307EBDE13695279517950795BA9582
:10008400D1F7042B152B262B372BF3010193119356
:0600940021933193089551
:1001D800810192010078B7E0A801B9017695679589
:1001E80057954795BA95D1F7810192010F7710700D
:1001F80020703070B9E1000F111F221F331FBA950C
:10020800D1F7042B152B262B372BF30101931193D0
:06021800219331930895CB
:1002BC0081019201087FB3E0A801B9017695679599
:1002CC0057954795BA95D1F7810192010770107037
:1002DC0020703070BDE1000F111F221F331FBA9523
:1002EC00D1F7042B152B262B372BF30101931193EC
:0602FC00219331930895E7
:1002360088249924AA24BB24B0E0B09396000091A8
:100246009600003290F5B091960081019201BB2391
:1002560031F03595279517950795BA95D1F7A801E9
:10026600B901417050706070707010E620E0009126
:100276009600E02FF0E0E10FF21F0081B02F8A0117
:100286009B01BB2331F0000F111F221F331FBA95AC
:10029600D1F7082919292A293B2948015901009132
:1002A60096000F5F00939600CACFF3018192919258
:0602B600A192B19208952F
:10056200CF93DF93CDB7DEB72297CDBFDEBF219603
:10057200042D152D20E017FD2FEF322F088319834C
:100582008E01F80131960081202F26952695269519
:10059200269506E110E1E22FF0E0E00FF11F049151
:1005A200F3010083362D472D3F5F4F4F8E01F80137
:1005B20031960081202F2F7006E110E1E22FF0E04A
:1005C200E00FF11F0491E32FF42F0083362D472D06
:1005D2003E5F4F4FFE010081202F269526952695DE
:1005E200269506E110E1E22FF0E0E00FF11F049101
:1005F200E32FF42F0083362D472D3D5F4F4FFE0131
:100602000081202F2F7006E110E1E22FF0E0E00FD1
:10061200F11F0491E32FF42F008328823982362DB3
:10062200472D3C5F4F4F8E01F80131960081202FFC
:10063200269526952695269506E110E1E22FF0E013
:10064200E00FF11F0491E32FF42F0083362D472D85
:100652003B5F4F4F8E01F80131960081202F2F70A2
:1006620006E110E1E22FF0E0E00FF11F0491E32F29
:10067200F42F0083362D472D3A5F4F4FFE01008144
:10068200202F269526952695269506E110E1E22F44
:10069200F0E0E00FF11F0491E32FF42F0083362DD9
:1006A200472D395F4F4FFE010081202F2F7006E149
:1006B20010E1E22FF0E0E00FF11F0491E32FF42F9D
:1006C2000083F3013896B0E0B0832196CDBFDEBF40
:0606D200DF91CF910895B5
:1006D8002F920FC0B0E82B2E19C0B0EC2B2E16C0ED
:1006E800B4E92B2E13C0B4ED2B2E10C0B0E82B2E7E
:1006F8000DC0B1E02B1671F3B2E02B1671F3B3E025
:100708002B1671F3B4E02B1671F3F0CF032D0150C3
:10071800020D202E202E23D0B0919700BE7FB093DB
:10072800970010E0E12FF0E0E40DF51D00810023B3
:1007380079F0E12FF0E0E40DF51D00811F932F9271
:10074800202E69DD2F901F91012F0F5F102FEACF08
:0E075800B0919700B160B09397002F90089574
:10021E00B0919700BE7FB09397009ED2B091970099
:08022E00B160B0939700089540
:10102E00A0E6B0E0E4EDFFE082E390E00E948101F3
:02103E00089513
:100D9A000F931F93EF93FF93BF93BFB7BF93009136
:100DAA009000109191000F5F1F4F009390001093D5
:100DBA009100BF91BFBFBF91FF91EF911F910F911A
:020DCA0018957A
:101016003031323334353637383941424344454628
:100FD40014101C181115191D16121E1A13171B1F95
:100FE4000B0F03070E0A0602090D01050C08040085
:100FF4000209070E010C0A000403080D0F06050B75
:021004000000EA
:100F48000000000000000000000000000000000099
:100F58000000000000000000000000000000000089
:100F68000000000000000000000000000000000079
:100F78000000000000000000000000000000000069
:100F88000000000000000000000000000000000059
:100F98000000000000000000000000000000000049
:100FA8000000000000000000000000000000000039
:0C0FB8000000000000000000000000002D
:040FC4000000000029
:040FC8000000000025
:080FCC0067452301EFCDAB895D
:1010060067452301EFCDAB8967452301EFCDAB895A
:0410260000000000C6
:04102A0000000000C2
:00000001FF
