:100000000C94FE070C9400000C9400000C9400006B
:100010000C9400000C9400000C9400000C94000060
:100020000C9400000C9400000C9400000C94E50764
:100030000C9400000C9400000C9400000C94000040
:100040000C9400000C9400000C9400000C94000030
:040050000C9400000C
:100FFC00BFE5BDBFB8E0BEBF0E947E09CDB7DEB76E
:10100C00CE58D040CDBFDEBF21962F923F924F924B
:10101C005F926F927F928F929F92EEEEF1E1DE01E2
:10102C0012968CE890E095D9E0D9B1E02B2E65DFD3
:10103C00BCE02B2E62DF8E010E5F1F4F18014CDBC4
:10104C00AE014A575F4FFA010191119121913191F3
:10105C00FE01E258FF4F01931193219331938A01C2
:10106C000C5F1F4FF8010191119121913191FE01FB
:10107C00EE57FF4F019311932193319380E090E051
:10108C000FE110E080179107D4F5BE016E577F4F2A
:10109C00AE0142585F4F9E012E5F3F4F8C01000FF7
:1010AC00111F000F111F020F131FF8010191119155
:1010BC00219131919F938F93FE01EE57FF4F6190D9
:1010CC00719081909190FE01E258FF4F21903190E8
:1010DC00419051907F936F935F934F933F932F93D6
:1010EC001F930F93D7DCADB7BEB71896ADBFBEBF7D
:1010FC008F919F918C010F5F1F4FC801C1CFB4EB33
:10110C006B2EB0E07B2EFE01E258FF4F2190319008
:10111C004190519037DEB4EB4B2EB0E05B2EB1E03A
:10112C003B2EB1E02B2E1AD9B4EB6B2EB0E07B2EFC
:10113C00FE01EE57FF4F219031904190519022DEED
:10114C00B4EB4B2EB0E05B2EBAE03B2EB1E02B2E75
:10115C0005D925E01FE002EF0A95F1F71A95E1F7A2
:10116C002A95D1F78E0128012090A8003090A90073
:10117C0053DABDE94B2EB0E05B2EB1E03B2EB3E071
:10118C002B2EECD88E012801BDE03B2EB3E02B2E8C
:10119C00E5D88E01280122B6B0E03B2E3DDAB0E94D
:1011AC004B2EB0E05B2EB1E03B2EB4E02B2ED6D80C
:1011BC008E012801BDE03B2EB4E02B2ECFD825E0CC
:1011CC001FE002EF0A95F1F71A95E1F72A95D1F78E
:1011DC009F908F907F906F905F904F903F902F904B
:0211EC00FFCF33
:1003F600B0913200B77FB0933200B0913200BB7F2C
:10040600B0933200B0913200BF77B0933200B09112
:100416003200BF7BB0933200B0913200BF7DB09303
:100426003200B0913200BF7EB0933200B0913100FD
:10043600B860B0933100B0913100B460B093310030
:10044600B0913100B061B0933100B0913100B0622B
:10045600B0933100B0913100B064B0933100B091E7
:100466003100B068B093310068DF67DF66DFB091B6
:100476003200B062B0933200B0913200B061B093F6
:100486003200B0913200B860B09332005FDFB091B5
:100496003200B77FB093320050DFB0913200B860BF
:1004A600B093320053DFB0913200B77FB093320081
:1004B60044DFB0913200B860B093320047DFB091AC
:1004C6003200B77FB093320038DFB0913200BF7E82
:1004D600B0933200B0913200B860B093320036DF8C
:1004E600B0913200B77FB093320027DFB09132006F
:1004F600B860B09332002ADFB0913200B77FB09374
:100506003200B0913200BF7DB0933200B09132001C
:10051600B068B0933200B0913200B860B093320048
:1005260015DFB0913200B77FB093320006DFB0918D
:100536003200BF77B0933200B0913200B061B09311
:100546003200B0913200B860B0933200FFDEB09155
:100556003200B77FB0933200B0913200BF7EB093C5
:100566003200B0913200B860B0933200EFDEB09145
:100576003200B77FB0933200E0DEB0913200B8604F
:10058600B0933200E3DEB0913200B77FB093320011
:10059600B0913200B061B0933200B0913200B860D1
:1005A600B0933200D3DEB0913200B77FB093320001
:1005B600C4DEB0913200BF7EB0933200B0913200FB
:1005C600B860B0933200C2DEB0913200B77FB0930C
:1005D6003200B0913200B068B0933200B091320070
:1005E600B064B0933200B0913200B062B093320082
:1005F600B0913200B061B0933200B0913200B86071
:10060600B0933200A3DEB0913200B77FB0933200D0
:0E06160094DEB091B300B160B093B3000895CC
:100340001AE303E20A95F1F71A95E1F700000000BD
:0203500008950E
:0C03520002E00A95F1F700000000089599
:100F060027FAB0913200B7F9B093320026FAB091C1
:100F16003200B6F9B093320025FAB0913200B5F935
:100F2600B093320024FAB0913200B4F9B093320093
:100F3600B091B30000903200E894B0FF689402F8D4
:100F460000923200B0913200B860B0933200FED900
:100F5600B0913200B77FB093320023FAB0913200DD
:100F6600B7F9B093320022FAB0913200B6F9B093D5
:100F7600320021FAB0913200B5F9B093320020FA6E
:100F8600B0913200B4F9B0933200B091B300009042
:100F96003200E894B0FF689402F800923200B091F3
:100FA6003200B860B0933200D1D9B0913200B77F29
:100FB600B0933200B091B300B0FF02C0BED901C0F9
:040FC600B7D90895FA
:0A03360005E80A95F1F700000895AC
:1006E400CF93DF93CDB7DEB76097CDBFDEBF219642
:1006F400ECEEF2E1DE0180E190E02FDE8E01F80104
:100704003C960191119121913191F1010193119341
:1007140021933193B0E0B093B2000091B2000F3155
:1007240008F0B6C1B0E0B093AE00B093AF00B093A0
:10073400B000B093B100B0E0B093AA00B093AB00A6
:10074400B093AC00B093AD00CE01FC0101911191C6
:10075400219131910093AA001093AB002093AC0037
:100764003093AD0027703070BDE0A801B901440F8B
:10077400551F661F771FBA95D1F7FC013496019176
:1007840011912191319100701070287FB3E1369559
:10079400279517950795BA95D1F7042B152B262B7A
:1007A400372BFC0101931193219331932E01C20144
:1007B4000496F2013496019111912191319127709F
:1007C4003070BDE0A801B901440F551F661F771FA3
:1007D400BA95D1F7F2013896019111912191319195
:1007E40000701070287FB3E136952795179507950B
:1007F400BA95D1F7042B152B262B372BFC0101932B
:100804001193219331932E01C2010896F201389677
:10081400019111912191319127703070BDE0A801AF
:10082400B901440F551F661F771FBA95D1F7F2011E
:100834003C96019111912191319100701070287FA3
:10084400B3E13695279517950795BA95D1F7042BFB
:10085400152B262B372BFC010193119321933193F4
:100864008E01C8010C96F8013C96019111912191D9
:10087400319127703070BDE0A801B901440F551FB4
:10088400661F771FBA95D1F70091AA001091AB00AB
:100894002091AC003091AD0000701070287FB3E15E
:1008A4003695279517950795BA95D1F7042B152BEF
:1008B400262B372BFC010193119321933193CE0105
:1008C400FC013C960191119121913191A801B9014A
:1008D4004F7050706070707000E810E0F801E40F21
:1008E400F51F00810093AA00B0E0B093AB00B09371
:1008F400AC00B093AD00FC013C96019111912191A3
:100904003191B4E03595279517950795BA95D1F7A8
:10091400A801B9014F7050706070707000E810E069
:10092400F801E40FF51F00810093AE00B0E0B0932E
:10093400AF00B093B000B093B1000091AE0010913D
:10094400AF002091B0003091B1000F701070207092
:100954003070B4E0A801B901440F551F661F771F1A
:10096400BA95D1F70091AA001091AB002091AC0088
:100974003091AD002A013B01402A512A622A732A90
:100984004092AA005092AB006092AC007092AD000D
:10099400AC01445F5F4FFC013C96019111912191A0
:1009A400319100700429152926293729FA01019368
:1009B4001193219331934E01F401389601911191D1
:1009C40021913191007010702070387FBBE1A80133
:1009D400B9017695679557954795BA95D1F74093A0
:1009E400AA005093AB006093AC007093AD000091EB
:1009F400B2000F712A013B014026B0E05B266B2652
:100A04007B264092AA005092AB006092AC00709298
:100A1400AD00C4010896F401389601911191219119
:100A24003191A801B9017770820193010F7110709F
:100A340020703070BBE1000F111F221F331FBA95C5
:100A4400D1F7042B152B262B372BFC010193119383
:100A5400219331930091B20010E00F5F1F4F000FFC
:100A6400111F000F111FA801420D531D8E01F80123
:100A74003C960191119121913191FA0101931193C5
:100A8400219331930091B2000F5F0093B20045CEE1
:0C0A94002F96CDBFDEBFDF91CF910895FB
:0A035E0005900D920197E1F7089554
:100AA000CF93DF93CDB7DEB76897CDBFDEBF21967A
:100AB0000C8D1D8D2E8D3F8D0C8F1D8F2E8F3F8F9A
:100AC00008A119A108A319A38AA19BA19F938F93A1
:100AD000B0E0B883B983BA83BB838F919F91B0E0B4
:100AE000BC83BD83BE83BF8363DB81019201007041
:100AF0001070022F132F20E0322F088719872A87C2
:100B00003B87A101B201607070704C875D876E8772
:100B10007F878301940100701070022F132F20E053
:100B2000322F088B198B2A8B3B8B83019401207009
:100B300030700C8B1D8B2E8B3F8B8E019F928F9272
:100B40007F926F925F924F923F922F9238011A01DB
:100B50002B0136DB2F903F904F905F906F907F90EE
:100B60008F909F908E019F938F939F928F927F92F1
:100B70006F925F924F923F922F9238012880398076
:100B80004A805B807BDA2F903F904F905F906F9010
:100B90007F908F909F908F919F918E010C5F1F4F40
:100BA0009F928F927F926F925F924F923F922F927D
:100BB0003801288439844A845B84DCDA488159818D
:100BC0006A817B810C811D812E813F8140275127C5
:100BD000622773270C8D1D8D2E8D3F8D0070107038
:100BE000022F132F20E0322F40275127622773272F
:100BF000488359836A837B838E0138011A012B0154
:100C000054DB8E010C5F1F4F38012C843D844E84D1
:100C10005F844BDB2F903F904F905F906F907F9061
:100C20008F909F90088119812A813B81712F602FBD
:100C3000442755270C811D812E813F81042B152BC4
:100C4000262B372B380149018E019F928F927F927C
:100C50006F925F924F923F922F9238012888398885
:100C60004A885B8887DA2F903F904F905F906F9013
:100C70007F908F909F908E019F938F939F928F92E2
:100C80007F926F925F924F923F922F92380128800D
:100C900039804A805B80F2D92F903F904F905F90CF
:100CA0006F907F908F909F908F919F918E010C5F9E
:100CB0001F4F9F928F927F926F925F924F923F92BF
:100CC0002F9238012C883D884E885F8879DA4881D8
:100CD00059816A817B810C811D812E813F81402752
:100CE0005127622773270C8D1D8D2E8D3F8D20700F
:100CF00030704027512762277327488359836A83BE
:100D00007B838E0138011A012B01CFDA8E010C5F33
:100D10001F4F3801288839884A885B88C6DA2F90A7
:100D20003F904F905F906F907F908F909F900C813D
:100D30001D812E813F81712F602F44275527088107
:100D400019812A813B81042B152B262B372B180167
:100D50002901E8A1F9A1B0E0B193B193B193B193A6
:100D6000FC01B0E0B193B193B193B193E8A1F9A1C3
:100D70002192319241925192FC0161927192819241
:100D80009192D6DA6796CDBFDEBFDF91CF910895FD
:000D900063
:1001B000B1E0B9BFBFB7B068BFBFB1E0B3BF08958A
:0001C0003F
:1001C00081019201087F20703070B3E0A801B9016D
:1001D0007595679557954795BA95D1F78101920125
:1001E0000770107020703070BDE0000F111F221FCB
:1001F000331FBA95D1F7042B152B262B372BF30180
:0A02000001931193219331930895A7
:10007C00CF93DF93CDB7DEB76097CDBFDEBF2196B0
:10008C00F301B0E0B193B193B193B193B0E0B093FD
:10009C00B2000091B200003108F060C00091B200D3
:1000AC0010E015950795159507959E01000F111FEA
:1000BC00000F111FC801820F931FB091B200810174
:1000CC009201BB2331F03595279517950795BA9575
:1000DC00D1F7A801B9014F7050706070707000E8D2
:1000EC0010E0F801E40FF51F0081FC010193B0E072
:1000FC00B193B193B1930091B20010E015950795AF
:10010C00159507959E01000F111F000F111FF80187
:10011C00E20FF31F0191119121913191B091B20035
:10012C00A801B901BB2331F0440F551F661F771F7F
:10013C00BA95D1F7F3010191119121913191042BD1
:10014C00152B262B372BF30101931193219331930C
:10015C000091B2000C5F0093B2009BCF2F96CDBFE5
:08016C00DEBFDF91CF91089581
:1001740081019201107020703070722F612F502F06
:10018400442781019201007020703070012F122FDA
:10019400232F30E027FD3FEF042B152B262B372B85
:0C01A400F301019311932193319308950E
:1002AA0088249924AA24BB24B0E0B093B200009118
:1002BA00B200003190F5B091B20081019201BB23E6
:1002CA0031F03595279517950795BA95D1F7A80175
:1002DA00B901417050706070707010E620E00091B2
:1002EA00B200E02FF0E0E10FF21F0081B02F8A0187
:1002FA009B01BB2331F0000F111F221F331FBA9538
:10030A00D1F7082919292A293B29480159010091BD
:10031A00B2000F5F0093B200CACFF30181929192AB
:06032A00A192B1920895BA
:06033000B0E0B3BF089528
:100D9000CF93DF93CDB7DEB72297CDBFDEBF2196CD
:100DA000042D152D20E017FD2FEF322F0883198316
:100DB0008E01F80131960081202F269526952695E3
:100DC00026950CED12E1E22FF0E0E00FF11F049107
:100DD000F3010083362D472D3F5F4F4F8E01F80101
:100DE00031960081202F2F700CED12E1E22FF0E000
:100DF000E00FF11F0491E32FF42F0083362D472DD0
:100E00003E5F4F4FFE010081202F269526952695A7
:100E100026950CED12E1E22FF0E0E00FF11F0491B6
:100E2000E32FF42F0083362D472D3D5F4F4FFE01FA
:100E30000081202F2F700CED12E1E22FF0E0E00F87
:100E4000F11F0491E32FF42F008328823982362D7D
:100E5000472D3C5F4F4F8E01F80131960081202FC6
:100E600026952695269526950CED12E1E22FF0E0C9
:100E7000E00FF11F0491E32FF42F0083362D472D4F
:100E80003B5F4F4F8E01F80131960081202F2F706C
:100E90000CED12E1E22FF0E0E00FF11F0491E32FDF
:100EA000F42F0083362D472D3A5F4F4FFE0100810E
:100EB000202F26952695269526950CED12E1E22FFA
:100EC000F0E0E00FF11F0491E32FF42F0083362DA3
:100ED000472D395F4F4FFE010081202F2F700CED01
:100EE00012E1E22FF0E0E00FF11F0491E32FF42F65
:100EF0000083F3013896B0E0B0832196CDBFDEBF0A
:060F0000DF91CF9108957E
:100368002F920FC0B0E82B2E19C0B0EC2B2E16C060
:10037800B4E92B2E13C0B4ED2B2E10C0B0E82B2EF1
:100388000DC0B1E02B1671F3B2E02B1671F3B3E098
:100398002B1671F3B4E02B1671F3F0CF032D015037
:1003A800020D202E202EABD5B091B300BE7FB093A6
:1003B800B30010E0E12FF0E0E40DF51D008100230B
:1003C80079F0E12FF0E0E40DF51D00811F932F92E5
:1003D800202E17DF2F901F91012F0F5F102FEACFCC
:0E03E800B091B300B160B093B3002F900895B0
:10020A00B091B300BE7FB093B30078D6B091B3007B
:08021A00B160B093B300089538
:10062400CF93DF93CDB7DEB72497CDBFDEBF21963E
:100634002F923F92B0E0B883B9832A823B8200E0D4
:1006440010E02016310654F4B1E0B883B0E0B98369
:1006540000E010E0021913090A831B832A803B80FF
:10066400DEDD66E070E0AB0100E010E00417150782
:1006740090F49A01240D351D8A0101501040F801AF
:10068400E40DF51D0081F90100838A010150104039
:10069400B801AB01E9CFF201B0E2B083088119815E
:1006A400B02FB12BA9F020E030E0F901E40DF51DE5
:1006B4000081003229F489010F5F1F4F9801F5CFA3
:1006C400890101501040F801E40DF51DBDE2B0832D
:1006D4003F902F902396CDBFDEBFDF91CF91089539
:0006E40016
:10022200CF93DF93CDB7DEB72297CDBFDEBF219646
:1002320010E0153050F4E12FF0E0E40DF51DB0E2CE
:10024200B083012F0F5F102FF4CFE12FF0E0E40D08
:10025200F51DB0E0B083012F0150302F032F10E0C5
:10026200040D151D088319834AE050E08101F1DE77
:100272008D01202F205D08811981F80120834AE039
:1002820050E08101E6DE8C011801103009F40030E3
:1002920009F404C0032F0150302FE0CF2196CDBFC7
:0802A200DEBFDF91CF9108954A
:10005400C801BA01AA1BBB1B51E107C0AA1FBB1FE1
:10006400A617B70710F0A61BB70B881F991F5A9540
:08007400A9F78095909508950D
:1012FC00A0E6B0E0EAE7F2E18AE490E00E94AF01F8
:02130C00089542
:100FCA000F931F93EF93FF93BF93BFB7BF93009104
:100FDA00A8001091A9000F5F1F4F0093A80010935B
:100FEA00A900BF91BFBFBF91FF91EF911F910F91D0
:020FFA00189548
:1012DC003031323334353637383941424344454660
:10127A000F0B0703020E0A0605010D090804000CEC
:10128A000000000000000000000000000000000054
:10129A000E0708040109020F050A0B00060C0D03CC
:0D12AA0054434E54302056616C75653A0077
:0B12B7004F766572666C6F77733A002B
:0212C20000002A
:1011EE0000000000000000000000000000000000F1
:1011FE0000000000000000000000000000000000E1
:10120E0000000000000000000000000000000000D0
:10121E0000000000000000000000000000000000C0
:10122E0000000000000000000000000000000000B0
:10123E0000000000000000000000000000000000A0
:10124E000000000000000000000000000000000090
:0C125E0000000000000000000000000084
:04126A000000000080
:04126E00000000007C
:08127200000000000000000074
:1012EC0000000000000000000000000000000000F2
:0412C4000000000026
:0412C8000000000022
:0412CC00000000001E
:0412D000000000001A
:0412D4000000000016
:0412D8000000000012
:00000001FF
