:100000000C9476050C9400000C9400000C940000F5
:100010000C9400000C9400000C9400000C94000060
:100020000C9400000C9400000C9400000C945D05EE
:100030000C9400000C9400000C9400000C94000040
:100040000C9400000C9400000C9400000C94000030
:040050000C9400000C
:100AEC00BFE5BDBFB8E0BEBF0E94A206CDB7DEB762
:100AFC00C658D040CDBFDEBF21962F923F924F9269
:100B0C005F926F927F928F929F92E2E9FCE0DE01FE
:100B1C00129684E890E00FDCDADDB1E02B2E75DD67
:100B2C00BCE02B2E72DD9E01265E3F4F8E01065FD0
:100B3C001F4F2901180164DC80E090E00BE110E00C
:100B4C0080179107A4F5BE016A5F7F4FAE014E5F1F
:100B5C005F4F9E01265E3F4F8C01000F111F000F4F
:100B6C00111F020F131FF801019111912191319165
:100B7C009F938F936E807F80888499842A803B809A
:100B8C004C805D807F936F935F934F933F932F9334
:100B9C001F930F936EDFADB7BEB71896ADBFBEBF38
:100BAC008F919F918C010F5F1F4FC801C7CFB2E689
:100BBC006B2EB0E07B2E2A803B804C805D809EDECD
:100BCC00B2E64B2EB0E05B2EB1E03B2EB1E02B2E0B
:100BDC006BDBB2E66B2EB0E07B2E2E803F80488420
:100BEC0059848CDEB2E64B2EB0E05B2EBAE03B2E85
:100BFC00B1E02B2E59DB25E01FE002EF0A95F1F74F
:100C0C001A95E1F72A95D1F78E0128012090600002
:100C1C003090610095DBB7E64B2EB0E05B2EB1E077
:100C2C003B2EB3E02B2E40DB8E012801BDE03B2E8A
:100C3C00B3E02B2E39DB8E01280122B6B0E03B2E1F
:100C4C007FDBB1E74B2EB0E05B2EB1E03B2EB4E086
:100C5C002B2E2ADB8E012801BDE03B2EB4E02B2E7F
:100C6C0023DB25E01FE002EF0A95F1F71A95E1F777
:100C7C002A95D1F79F908F907F906F905F904F90B7
:060C8C003F902F90FFCF06
:1006DA00B0913200B77FB0933200B0913200BB7F45
:1006EA00B0933200B0913200BF77B0933200B0912C
:1006FA003200BF7BB0933200B0913200BF7DB0931D
:10070A003200B0913200BF7EB0933200B091310016
:10071A00B860B0933100B0913100B460B093310049
:10072A00B0913100B061B0933100B0913100B06244
:10073A00B0933100B0913100B064B0933100B09100
:10074A003100B068B09331004CDD4BDD4ADDB09129
:10075A003200B062B0933200B0913200B061B0930F
:10076A003200B0913200B860B093320093DDB0919C
:10077A003200B77FB093320034DDB0913200B860F6
:10078A00B093320087DDB0913200B77FB093320068
:10079A0028DDB0913200B860B09332007BDDB091B1
:1007AA003200B77FB09332001CDDB0913200BF7EB9
:1007BA00B0933200B0913200B860B09332006ADD73
:1007CA00B0913200B77FB09332000BDDB0913200A6
:1007DA00B860B09332005EDDB0913200B77FB0935B
:1007EA003200B0913200BF7DB0933200B091320036
:1007FA00B068B0933200B0913200B860B093320062
:10080A0049DDB0913200B77FB0933200EADCB09193
:10081A003200BF77B0933200B0913200B061B0932A
:10082A003200B0913200B860B093320033DDB0913B
:10083A003200B77FB0933200B0913200BF7EB093DE
:10084A003200B0913200B860B093320023DDB0912B
:10085A003200B77FB0933200C4DCB0913200B86086
:10086A00B093320017DDB0913200B77FB0933200F7
:10087A00B0913200B061B0933200B0913200B860EA
:10088A00B093320007DDB0913200B77FB0933200E7
:10089A00A8DCB0913200BF7EB0933200B091320032
:1008AA00B860B0933200F6DCB0913200B77FB093F3
:1008BA003200B0913200B068B0933200B091320089
:1008CA00B064B0933200B0913200B062B09332009B
:1008DA00B0913200B061B0933200B0913200B8608A
:1008EA00B0933200D7DCB0913200B77FB0933200B8
:0E08FA0078DCB0917E00B160B0937E0008956E
:1001EC001AE303E20A95F1F71A95E1F70000000013
:0201FC00089564
:0C029E0002E00A95F1F70000000008954E
:1006160027FAB0913200B7F9B093320026FAB091BA
:100626003200B6F9B093320025FAB0913200B5F92E
:10063600B093320024FAB0913200B4F9B09332008C
:10064600B0917E0000903200E894B0FF689402F802
:1006560000923200B0913200B860B09332001CDED6
:10066600B0913200B77FB093320023FAB0913200D6
:10067600B7F9B093320022FAB0913200B6F9B093CE
:10068600320021FAB0913200B5F9B093320020FA67
:10069600B0913200B4F9B0933200B0917E00009070
:1006A6003200E894B0FF689402F800923200B091EC
:1006B6003200B860B0933200EFDDB0913200B77F00
:1006C600B0933200B0917E00B0FF02C08CDD01C055
:0406D600E9DD0895BD
:0A02AA0005E80A95F1F70000089539
:10040C006F927F928F929F92A0E0AB3108F0F8C070
:10041C00A030A1F40A2F10E0000F111F000F111FC4
:10042C00A801440D551DF1013C96019111912191AA
:10043C003191FA0101931193219331933101B4EF6E
:10044C006B1ABFEF7B0AC1010896F1013C964191F2
:10045C00519161917191F101389601911191219114
:10046C003191AF935F924F923F922F927F926F9206
:10047C009F938F93B0E0BF93BF93BF93AF933A0119
:10048C004B011801290131DEADB7BEB71896ADBFCF
:10049C00BEBF2F903F904F905F90AF910A2F10E00E
:1004AC000F5F1F4F000F111F000F111FA801440DEC
:1004BC00551DF1013C960191119121913191FA0157
:1004CC0001931193219331934101B4EF8B1ABFEF38
:1004DC009B0A3101BCEF6B1ABFEF7B0A8A2F90E0AD
:1004EC008F5F9F4FF1013C964191519161917191B8
:1004FC00F10134960191119121913191AF935F9259
:10050C004F923F922F929F928F927F926F92B0E078
:10051C0097FDBFEFBF93BF939F938F933A014B010E
:10052C0018012901E2DDADB7BEB71896ADBFBEBF4D
:10053C002F903F904F905F90AF910A2F10E00E5F7D
:10054C001F4F000F111F000F111FA801440D551D47
:10055C00F1013C960191119121913191FA01019394
:10056C001193219331933101B4EF6B1ABFEF7B0AD6
:10057C008A2F90E08E5F9F4FF1013C9641915191F3
:10058C0061917191F1010191119121913191AF938F
:10059C005F924F923F922F927F926F923F922F9247
:1005AC00B0E097FDBFEFBF93BF939F938F933A013A
:1005BC004B011801290199DDADB7BEB71896ADBF37
:1005CC00BEBF2F903F904F905F90AF910A2F10E0DD
:1005DC000D5F1F4F000F111F000F111FA801440DBD
:1005EC00551DF1013C960191119121913191FA0126
:1005FC0001931193219331930A2F0D5FA02F05CFF7
:0A060C009F908F907F906F900895EB
:1000F600CF93DF93CDB7DEB72897CDBFDEBF21966E
:100106002F923F924F925F926F927F928F929F9221
:100116000C851D852E853F850C871D872E873F877D
:10012600888999890A891B890A8B1B8B28823982BF
:100136004A825B826C827D828E829F828E0138012A
:10014600288039804A805B8082DF488159816A81B4
:100156007B810C811D812E813F81400F511F621FC3
:10016600731F488359836A837B830C851D852E857F
:100176003F850427152726273727088319832A83CF
:100186003B83FC0101931193219331938E010C5F04
:100196001F4F38012C803D804E805F8072DF4C817E
:1001A6005D816E817F81088119812A813B810427C7
:1001B6001527262737270C831D832E833F83EA893D
:1001C600FB8901931193219331939F908F907F9098
:1001D6006F905F904F903F902F902796CDBFDEBFD8
:0601E600DF91CF910895A6
:10005400810192010070412F522F632F70E08101C2
:100064009201107020703070302F00271127222742
:10007400042B152B262B372BF3010193119321937A
:040084003193089517
:10008800810192013F71B3E0A801B901440F551FE6
:10009800661F771FBA95D1F7810192010070107021
:1000A8002070307EBDE13695279517950795BA954E
:1000B800D1F7042B152B262B372BF3010193119322
:0600C8002193319308951D
:100A7E00CF93DF93CDB7DEB72596088119812A81F2
:100A8E003B814C815D816E817F817F936F935F93FC
:100A9E004F933F932F931F930F9326DBADB7BEB7A4
:0C0AAE001896ADBFBEBFDF91CF91089538
:10090800CF93DF93CDB7DEB72297CDBFDEBF219659
:10091800042D152D20E017FD2FEF322F08831983A2
:100928008E01F80131960081202F2695269526956F
:10093800269504E31DE0E22FF0E0E00FF11F04919B
:10094800F3010083362D472D3F5F4F4F8E01F8018D
:1009580031960081202F2F7004E31DE0E22FF0E094
:10096800E00FF11F0491E32FF42F0083362D472D5C
:100978003E5F4F4FFE010081202F26952695269534
:10098800269504E31DE0E22FF0E0E00FF11F04914B
:10099800E32FF42F0083362D472D3D5F4F4FFE0187
:1009A8000081202F2F7004E31DE0E22FF0E0E00F1C
:1009B800F11F0491E32FF42F008328823982362D0A
:1009C800472D3C5F4F4F8E01F80131960081202F53
:1009D800269526952695269504E31DE0E22FF0E05E
:1009E800E00FF11F0491E32FF42F0083362D472DDC
:1009F8003B5F4F4F8E01F80131960081202F2F70F9
:100A080004E31DE0E22FF0E0E00FF11F0491E32F73
:100A1800F42F0083362D472D3A5F4F4FFE0100819A
:100A2800202F269526952695269504E31DE0E22F8E
:100A3800F0E0E00FF11F0491E32FF42F0083362D2F
:100A4800472D395F4F4FFE010081202F2F7004E39F
:100A58001DE0E22FF0E0E00FF11F0491E32FF42FE7
:100A68000083F3013896B0E0B0832196CDBFDEBF96
:060A7800DF91CF9108950B
:1002B4002F920FC0B0E82B2E19C0B0EC2B2E16C015
:1002C400B4E92B2E13C0B4ED2B2E10C0B0E82B2EA6
:1002D4000DC0B1E02B1671F3B2E02B1671F3B3E04D
:1002E4002B1671F3B4E02B1671F3F0CF032D0150EC
:1002F400020D202E202E8DD1B0917E00BE7FB093B2
:100304007E0010E0E12FF0E0E40DF51D00810023F4
:1003140079F0E12FF0E0E40DF51D00811F932F9299
:10032400202E6BDF2F901F91012F0F5F102FEACF2C
:0E033400B0917E00B160B0937E002F900895CE
:1001FE00B0917E00BE7FB0937E0006D2B0917E009D
:08020E00B160B0937E00089579
:10034C00CF93DF93CDB7DEB72497CDBFDEBF219619
:10035C002F923F92B0E0B883B9832A823B8200E0AF
:10036C0010E02016310654F4B1E0B883B0E0B98344
:10037C0000E010E0021913090A831B832A803B80DA
:10038C0044DF66E070E0AB0100E010E004171507F5
:10039C0090F49A01240D351D8A0101501040F8018A
:1003AC00E40DF51D0081F90100838A010150104014
:1003BC00B801AB01E9CFF201B0E2B0830881198139
:1003CC00B02FB12BA9F020E030E0F901E40DF51DC0
:1003DC000081003229F489010F5F1F4F9801F5CF7E
:1003EC00890101501040F801E40DF51DBDE2B08308
:1003FC003F902F902396CDBFDEBFDF91CF91089514
:00040C00F0
:10021600CF93DF93CDB7DEB72297CDBFDEBF219652
:1002260010E0153050F4E12FF0E0E40DF51DB0E2DA
:10023600B083012F0F5F102FF4CFE12FF0E0E40D14
:10024600F51DB0E0B083012F0150302F032F10E0D1
:10025600040D151D088319834AE050E0810134DF3F
:100266008D01202F205D08811981F80120834AE045
:1002760050E0810129DF8C011801103009F40030AB
:1002860009F404C0032F0150302FE0CF2196CDBFD3
:08029600DEBFDF91CF91089556
:1000CE00C801BA01AA1BBB1B51E107C0AA1FBB1F67
:1000DE00A617B70710F0A61BB70B881F991F5A95C6
:0800EE00A9F780959095089593
:0A03420005900D920197E1F7089570
:100D4400A0E6B0E0E6E1FDE08EE190E00E94A101C2
:020D5400089500
:100ABA000F931F93EF93FF93BF93BFB7BF93009119
:100ACA006000109161000F5F1F4F00936000109348
:100ADA006100BF91BFBFBF91FF91EF911F910F912D
:020AEA0018955D
:100D3400303132333435363738394142434445460D
:020D16000000DB
:050D18000000000000D6
:0A0D1D004F766572666C6F773A003E
:0D0D270054434E54302056616C75653A00FF
:040C92007465723BD8
:040C96002D43757401
:100C9A0018191A1B1011121308090A0B0001020372
:100CAA00000000000000000000000000000000003A
:100CBA00000000000000000000000000000000002A
:100CCA00000000000000000000000000000000001A
:100CDA00000000000000000000000000000000000A
:100CEA0000000000000000000000000000000000FA
:100CFA0000000000000000000000000000000000EA
:0C0D0A00000000000000000000000000DD
:00000001FF
